:100000000C946B010C94A20F0C94770F0C944C0F72
:100010000C94210F0C94F60E0C94CB0E0C94A00EA5
:100020000C94750E0C949C010C949C010C949C01F6
:100030000C949C010C949C010C949C010C949C01CC
:100040000C949C010C949C010C949C010C949C01BC
:100050000C949C010C949C010C949C010C942B0E10
:100060000C949C010C94F70F0C94CD0F0C949C01F4
:100070000C949C010C949C010C949C010C949C018C
:100080000C949C010C949C010C949C010C949C017C
:100090000C949C010C949C010C949C010C942D10CC
:1000A0000C949C010C949C010C949C010C949C015C
:1000B0000C949C010C949C010C949C010C949C014C
:1000C0000C949C010C949C010C949C010C949C013C
:1000D0000C949C010C949C010C949C010C949C012C
:1000E0000C949C010C9413020C9493040C94010244
:1000F0000C9426050C9427020C94E6010C9405023E
:100100000C94B6080C94F0010C94C6010C94511197
:100110000C9419020C9426020C94A1040C9453081C
:100120000C94F4010C941D020C9431080C942B02D5
:100130000C945A080C94C7010C9440080C94D904F0
:100140000C9430080C9421020C9487080C947F04C2
:100150000C94970D0C940B020C94FB010C94EC0185
:100160000C9443040C9442040C94F8010C94700415
:100170000C940F020C943E044E414E494E49545982
:10018000494E46CDCCCC3D0AD7233C17B7D1387762
:10019000CC2B329595E6241FB14F0A000020410078
:1001A00000C84200401C4620BCBE4CCA1B0E5AAEC2
:1001B000C59D74000020002300260029002C002F7C
:1001C0000032000001000003010601090100000ADD
:1001D0000B02090C0D0E08070304010000000000CB
:1001E000000000000000000000000000000000000F
:1001F00000000000000000000012111000000000CC
:1002000000000000000000000000000000000000EE
:1002100000000000002200250028002B002E0031E5
:1002200000340002010000050108010B010000215B
:1002300000240027002A002D0030003300010100B7
:1002400000040107010A010505050507050808085E
:1002500008020202020A0A08080404040401010157
:10026000010101010103030303030303030407075F
:10027000070C0C0C0C0C0C0C0C02020202060606FD
:1002800006060606060B0B0B0B0B0B0B0B010210E5
:1002900020200808102040102040800201020108A0
:1002A0000402010102040810204080804020100850
:1002B00004020180040201804020100804020108A9
:1002C0000402010102040810204080010204081009
:1002D00020408000511111241FBECFEFD1E2DEBFBC
:1002E000CDBF00E00CBF26E0AAEEB4E001C01D9235
:1002F000A038B207E1F714E0A0E0B2E0E6E7F5E3EA
:1003000000E00BBF02C007900D92AA3EB107D9F7DB
:1003100011E0CBE6D1E000E006C021970109802F73
:10032000FE010E94CF18CA36D10780E00807A9F75E
:100330000E9493110C94B91A0C940000CF93DF9390
:1003400090E0FC01E357FD4F2491895B9D4FFC0138
:1003500084918823C1F090E0880F991FFC01E35D30
:10036000FD4FC591D491FC01ED5EFD4FA591B49177
:100370009FB7F8948881E22FE0958E2388838C9133
:10038000E823EC939FBFDF91CF91089508950895DE
:100390008150823108F05AC0E82FF0E08827EC52F3
:1003A000FE4F8F4F0C94CF18F401F801E601EC01D9
:1003B000F0012602FB01010205020B020F021302EB
:1003C00019021D022602210227022B0280918000C1
:1003D0008F77809380000895809180008F7DF9CF82
:1003E00080918000877FF5CF84B58F7784BD089595
:1003F00084B58F7DFBCF8091B0008F778093B00064
:1004000008958091B0008F7DF9CF809190008F7713
:10041000809390000895809190008F7DF9CF809116
:100420009000877FF5CF8091A0008F778093A00008
:1004300008958091A0008F7DF9CF8091A000877FE3
:10044000F5CF809120018F778093200108958091CE
:1004500020018F7DF9CF80912001877FF5CF1F93F9
:10046000CF93DF93282F30E0F901E353FE4F8491BF
:10047000F901E357FD4FD491F901E95BFD4FC491B8
:10048000CC23A9F0162F81110E94C801EC2FF0E0B7
:10049000EE0FFF1FED5EFD4FA591B4918FB7F8945D
:1004A000EC91111108C0D095DE23DC938FBFDF9152
:1004B000CF911F910895DE2BF8CFFC0180819181AF
:1004C000892B39F0A281B3819C9111968C919CBDAE
:1004D0008DBD83858F3F19F060E00C942F02089545
:1004E000FC0183858F3F19F061E00C942F02089581
:1004F0008230910538F0880F991F880F991F059752
:100500000197F1F70895BF92CF92DF92EF92FF9299
:100510000F931F93CF93DF93EC0188819981892BEF
:1005200081F06EBD0DB407FEFDCF0EB5802FDF91BB
:10053000CF911F910F91FF90EF90DF90CF90BF90E0
:1005400008958885998511E0892B09F010E8BB246E
:10055000B394862F812309F0B12CF62E2C813D8196
:100560004E815F8160E271EA87E090E00E94AD1801
:10057000E22E00E0C22ED12CEE2019F0C6010E941E
:1005800078028A85982F977F09F044C08D858F3F28
:1005900089F09F2D912381E009F480E08B1551F0C3
:1005A000EF85F8898F89992379F19081892B808350
:1005B000BB24B394E989FA898081998D892B808342
:1005C000EE2019F0C6010E9478028E858F3F39F027
:1005D000EB89FC898081988D892309F0012BE989B9
:1005E000FA899081898D8095892380838885998572
:1005F000892B09F067C0110F1111BECF8E858F3F77
:1006000009F094CF0F2D92CF90818095892380831C
:10061000B12CD0CF8C3099F58D858F3F49F0EF8587
:10062000F8898F899F2D912331F19081892B8083C7
:10063000E989FA899081898D809589238083EE20CC
:1006400019F0C6010E947802E989FA898081998DA2
:10065000892B8083EE2019F0C6010E9478028E85D6
:100660008F3F21F2EB89FC898081988D892309F4E1
:10067000BDCF012BBBCF908180958923D8CFE9894D
:10068000FA898081998D892B8083EE2019F0C6012B
:100690000E9478028D858F3F49F0EF85F8898F8918
:1006A0009F2D912359F09081892B8083E989FA89C4
:1006B0009081898D809589238083D1CF9081809589
:1006C0008923F3CF169598CF8F929F92AF92BF92C6
:1006D000CF92DF92EF92FF920F931F93CF93DF930E
:1006E0007C014B016A01B22EA32E0E945D02E4013F
:1006F000C80CD91CCC15DD0569F4CB2DDA2D0C0FF7
:100700001D1FC017D10759F06FEFC7010E94830268
:100710008993F7CF6991C7010E948302EBCFC7018C
:100720000E94700281E0DF91CF911F910F91FF90A5
:10073000EF90DF90CF90BF90AF909F908F900895F3
:100740008F929F92AF92BF92CF92DF92EF92FF92E1
:100750000F931F93CF93DF937C01B62EA72E6A01D0
:1007600049010E945D02E401080D191DC017D1075F
:1007700061F4CB2DDA2DCC0EDD1ECC15DD0551F04C
:100780006991C7010E948302F8CF6991C7010E9455
:100790008302ECCFC7010E94700281E0DF91CF910C
:1007A0001F910F91FF90EF90DF90CF90BF90AF908F
:1007B0009F908F9008953FB7F8948091380590915D
:1007C0003905A0913A05B0913B0526B5A89B05C017
:1007D0002F3F19F00196A11DB11D3FBFBA2FA92FC0
:1007E000982F8827BC01CD01620F711D811D911DBD
:1007F00042E0660F771F881F991F4A95D1F7089529
:100800008F929F92AF92BF92CF92DF92EF92FF9220
:100810004B015C010E94DB036B017C010E94DB0346
:100820006C197D098E099F09683E73408105910509
:10083000A8F321E0821A9108A108B10888EEC80E39
:1008400083E0D81EE11CF11C81149104A104B104C1
:1008500029F7FF90EF90DF90CF90BF90AF909F90DF
:100860008F9008952FB7F8946091340570913505F5
:1008700080913605909137052FBF089581E08093D0
:100880002E0508950895AF92BF92CF92DF92EF9216
:10089000FF920F931F93CF93DF936C017B018B012A
:1008A000040F151FEB015E01AE18BF08C017D1077A
:1008B00059F06991D601ED91FC910190F081E02D04
:1008C000C6011995892B79F7C501DF91CF911F9149
:1008D0000F91FF90EF90DF90CF90BF90AF90089571
:1008E000FC01538D448D252F30E0842F90E0821B36
:1008F000930B541710F0CF96089501970895FC01BB
:10090000918D828D981761F0A28DAE0FBF2FB11D12
:100910005D968C91928D9F5F9F73928F90E008956A
:100920008FEF9FEF0895FC01918D828D981731F024
:10093000828DE80FF11D858D90E008958FEF9FEF78
:100940000895FC01918D228D892F90E0805C9F4F4E
:10095000821B91098F739927089582EB95E00E947D
:10096000A10421E0892B09F420E0822F0895FC01E5
:10097000A48DA80FB92FB11DA35ABF4F2C91848D00
:1009800090E001968F739927848FA689B7892C935D
:10099000A089B1898C91837080648C93938D848DB0
:1009A000981306C00288F389E02D80818F7D8083B3
:1009B0000895EF92FF920F931F93CF93DF93EC0173
:1009C00081E0888F9B8D8C8D98131AC0E889F989F6
:1009D000808185FF15C09FB7F894EE89FF896083F9
:1009E000E889F98980818370806480839FBF81E07A
:1009F00090E0DF91CF911F910F91FF90EF900895BC
:100A0000F62E0B8D10E00F5F1F4F0F731127E02E96
:100A10008C8D8E110CC00FB607FCFACFE889F989CE
:100A2000808185FFF5CFCE010E94B704F1CFEB8D19
:100A3000EC0FFD2FF11DE35AFF4FF0829FB7F894A2
:100A40000B8FEA89FB8980818062CFCFCF93DF93C0
:100A5000EC01888D8823B9F0AA89BB89E889F989D6
:100A60008C9185FD03C0808186FD0DC00FB607FC0B
:100A7000F7CF8C9185FFF2CF808185FFEDCFCE013E
:100A80000E94B704E9CFDF91CF91089580E090E014
:100A9000892B29F00E94AD0481110E94000080E0A2
:100AA00090E0892B49F080E090E0892B29F00E94AA
:100AB000000081110E94000080E090E0892B49F045
:100AC00080E090E0892B29F00E94000081110E94B3
:100AD000000080E090E0892B49F080E090E0892BD5
:100AE00029F00E94000081110C94000008952091CB
:100AF0000B05260F3327331F21323105ECF42091EB
:100B00008805FC0190E080E0243069F082E00895DF
:100B1000A0910B052191AC0145515B4FA40FB52F5E
:100B2000B11D2C930196861798F380910B05680FE1
:100B300060930B0580E0089581E008951092880588
:100B400081E0809387051092620561E084E10E9454
:100B50002F0261E085E10E942F02E9EBF0E0808145
:100B60008E7F808380818D7F808388E48093B8002E
:100B700085E48093BC000895109261051092600591
:100B800010928F051092B1050E949E0586EC91E0AF
:100B900090935F0580935E0587EC91E090935D05EF
:100BA00080935C050895CF93DF9391E09093EA04DE
:100BB0008823B9F0C091B800D091BA008091BC00F0
:100BC0008A7B8093BC0060E084E10E942F0260E099
:100BD00085E10E942F020E949E05D093BA00C09327
:100BE000B800DF91CF9108958F929F92AF92BF92FC
:100BF000CF92DF92EF92FF920F931F93CF93DF93E9
:100C0000D091B105D13208F0D7C0182FC091B005EE
:100C10000E94DB036B017C018091880581116BC010
:100C200082E080938805109387058FEF8093860577
:100C300010928505D0938405A0E9B5E0E4E6F5E0DF
:100C400080E0D81391C01092630580916305CC0FAA
:100C5000C82BC093630580916205813009F088C07C
:100C6000109262050E94DB036B017C018091630599
:100C70008093BB0080918A0590918B05A0918C0593
:100C8000B0918D05892B8A2B8B2BA1F00E94DB0361
:100C900000918A0510918B0520918C0530918D056E
:100CA0006C197D098E099F09061717072807390750
:100CB00008F442C08091BC0083FDD8CF85EC8093BE
:100CC000BC000E94DB036B017C01809188058230AF
:100CD00009F450C0809186058F3F09F46FC0809160
:100CE0008605803209F46CC080918605803309F452
:100CF00069C084E026C080918A0590918B05A091FF
:100D00008C05B0918D05892B8A2B8B2B09F484CF10
:100D10000E94DB0380908A0590908B05A0908C0543
:100D2000B0908D056C197D098E099F09861697066E
:100D3000A806B90608F070CF809189050E94D305F6
:100D400085E010928F051092B10510928E05DF910B
:100D5000CF911F910F91FF90EF90DF90CF90BF90B8
:100D6000AF909F908F9008959D9191938F5F69CFE1
:100D700085EEA5CF80918A0590918B05A0918C0579
:100D8000B0918D05892B8A2B8B2B09F49ECF0E9465
:100D9000DB0300918A0510918B0520918C05309121
:100DA0008D056C197D098E099F09061717072807FD
:100DB000390708F08ACFC0CF81E0C3CF80E0C1CF30
:100DC00082E0BFCF83E0BDCF1F93CF93DF93EA01D3
:100DD000122FDC0111968D919C91DC01ED91FC911B
:100DE0000280F381E02D1995C817D90729F4812FC6
:100DF0000E94F40591E0811190E0892FDF91CF915D
:100E00001F910895AF92BF92CF92DF92EF92FF921F
:100E10000F931F93CF93DF931F921F92CDB7DEB72F
:100E2000DC01211103C01A962C911A97253008F085
:100E300043C051964D935D936D937C93549790E08E
:100E400080E0E22EF12C8E159F05B4F41C962C91B7
:100E50001C9721110AC0FD01E80FF91F4587452F96
:100E6000562F672F77270196EECFF701E81BF90B76
:100E7000EA0FFB1F4487F3CF6D018DE0C80ED11C34
:100E800018969C91189719968C91199799838A8333
:100E9000AD90BC901197A114B10409F441C01B9608
:100EA0000C9110E098012E0D3F1DD50114968D91E7
:100EB0009C918217930710F480E016C0F5018181A0
:100EC0009281208131E030938E052093B0051092FD
:100ED0008F051092B1050115110599F421E0A701C4
:100EE000B601C5010E94E4060F900F90DF91CF91EB
:100EF0001F910F91FF90EF90DF90CF90BF90AF9038
:100F00000895DC01ED91FC910280F381E02DA801B0
:100F1000BE016F5F7F4F19950817190769F6DECF7D
:100F20001296ED91FC911397309749F116962D91F9
:100F30003C9117971B960C9110E02330310571F40A
:100F40008E7F89839A830F5F1F4F9E012F5F3F4FD4
:100F5000A701B601CF010E94A003C6CF211531051C
:100F600019F49F779983F1CF2230310511F49068FD
:100F7000F9CF2130310549F79F779064F3CF14966C
:100F8000ED91FC911597309709F496CF80858823D1
:100F900009F492CFA680B780A114B10409F48CCFD4
:100FA000870196011B964C91BE016F5F7F4F818533
:100FB0009285F501199598CFCF93DF93CDB7DEB722
:100FC00065970FB6F894DEBF0FBECDBF20915E06C9
:100FD00030915F061A8A1B8A1C8A1D8A3A832983EC
:100FE0001C821B8221E02C8790E09A8789871D86CE
:100FF0002B87462F50E070E060E020E0CE010196A4
:101000000E94020765960FB6F894DEBF0FBECDBFF3
:10101000DF91CF910895CF93DF93EC018B818823EB
:10102000A1F0888191E090938E058093B005109295
:101030008F051092B10581E00E94F40591E08111C5
:1010400090E0892FDF91CF9108950E94BC0581E047
:101050008B83CE010E940B08982F8111E2CFF1CF34
:101060000895E091610580916005E81730F4F0E0A3
:10107000E45CFA4F808190E008958FEF9FEF089530
:1010800090916105809160052FEF3FEF981748F42C
:10109000E92FF0E0E45CFA4F208130E09F5F90930D
:1010A0006105C90108958091600590916105891BD2
:1010B000990B0895CF92DF92EF92FF920F931F93B7
:1010C000CF93DF937C01CB018A0120918E052223EF
:1010D00089F0EB016B01C40ED51ECC15DD0569F05E
:1010E0006991D701ED91FC910190F081E02DC7014C
:1010F0001995F3CF642F0E947705C801DF91CF9136
:101100001F910F91FF90EF90DF90CF900895CF93B4
:10111000DF931F92CDB7DEB7698320918E0522231E
:10112000F9F02091B105203258F021E030E0FC01C7
:101130003383228390E080E00F90DF91CF91089578
:1011400080918F05E82FF0E0E057FA4F9981908366
:101150008F5F80938F058093B10581E090E0ECCFA5
:1011600061E0CE0101960E947705F7CF90E080E024
:101170000895FC0101900020E9F73197AF01481B69
:10118000590BBC0182EB95E00C9443048F929F9223
:10119000AF92BF920F931F93CF93DF93CDB7DEB77C
:1011A000A1970FB6F894DEBF0FBECDBF19A2423093
:1011B00008F44AE08E010F5D1F4F842E912CB12C54
:1011C000A12CA50194010E94AD18E62FB901CA0116
:1011D000EA30F4F4E05DD801EE938D01232B242B4B
:1011E000252B79F790E080E0109719F0CD010E944F
:1011F000B908A1960FB6F894DEBF0FBECDBFDF9140
:10120000CF911F910F91BF90AF909F908F900895B5
:10121000E95CE1CFCF93DF930E94B908EC0184E44D
:1012200092E00E94B9088C0F9D1FDF91CF91089525
:101230000C94B908BC0190E080E04AE00C94C60828
:101240002F923F924F925F926F927F928F929F92D6
:10125000AF92BF92CF92DF92EF92FF920F931F93C4
:10126000CF93DF9300D01F92CDB7DEB7DC014B01E7
:10127000042F18969C91189719968C911997998319
:101280008A832D903C9011972114310409F43AC1BE
:101290001B964C9150E0D10114968D919C9184172E
:1012A0009507C8F4D12C8D2D0F900F900F900F90B3
:1012B000DF91CF911F910F91FF90EF90DF90CF9032
:1012C000BF90AF909F908F907F906F905F904F9066
:1012D0003F902F900895F101808191E090938E05C9
:1012E0008093B00510928F051092B10520E0BE01E9
:1012F0006F5F7F4FC1010E94E406D82E882391F2D0
:10130000802F90E09C838B83B12CA12C01E0AB81DA
:10131000BC81AA16BB0638F6F101848195817D0156
:10132000EA18FB088E159F0508F47C01D101CC90CA
:101330000E94DB032B013C0180918805811172C062
:101340001E2D113208F010E20093880521E08B81F8
:101350009C818E199F09A816B90608F420E02093F5
:101360008705BFEFB0938605109285058FEF810F3B
:10137000809384050093630580916305CC0CC82A93
:10138000C092630580916205813009F092C010928D
:1013900062050E94DB032B013C0180916305809371
:1013A000BB0080918A0590918B05A0918C05B0912E
:1013B0008D05892B8A2B8B2BA1F00E94DB032091BA
:1013C0008A0530918B0540918C0550918D056419EB
:1013D000750986099709261737074807590708F43A
:1013E00042C08091BC0083FDD8CFE5ECE093BC0007
:1013F0000E94DB032B013C0180918805813009F4B8
:101400005CC080918505811710F410918505A4E6D4
:10141000B5E0ECE3F5E080E0811751F19D91919307
:101420008F5FFACF80918A0590918B05A0918C05F2
:10143000B0918D05892B8A2B8B2B09F47DCF0E94CF
:10144000DB0320918A0530918B0540918C055091EA
:101450008D05641975098609970926173707480706
:10146000590708F069CF809189050E94D30510E0E3
:1014700010926105109360051E151F0409F012CF2C
:1014800034016A0C7B1C2301C201861997098E1551
:101490009F05A8F5D10111968D919C91DC01ED91EC
:1014A000FC910284F385E02D1995F20181932F01BF
:1014B000EBCFF5EEF093BC009BCF80918A05909125
:1014C0008B05A0918C05B0918D05892B8A2B8B2BD8
:1014D00009F492CF0E94DB0320918A0530918B059D
:1014E00040918C0550918D056419750986099709FD
:1014F000261737074807590708F07ECFB4CFAE0C40
:10150000BF1C05CF1296ED91FC911397309749F1CE
:1015100016962D913C91179710E01B964C9150E038
:101520002330310571F4816089839A834F5F5F4F67
:101530009401BE016F5F7F4FCF010E946403D82EDC
:10154000B2CE2115310519F490689983F1CF22307C
:10155000310511F49F77F9CF2130310549F7906CAF
:10156000F4CF1496ED91FC911597309709F49ACE2B
:101570008085882309F496CEE480F580E114F10497
:1015800009F490CE10E09B011B964C91BE016F5F59
:101590007F4F81859285F7011995D1CFCF93DF9346
:1015A000EC01BC01635F7F4F4A850E9420098823BC
:1015B00001F14A8550E030E020E060E070E0CB01CE
:1015C00024173507CCF4982F872F762F6627EC85C4
:1015D000E1110AC0FA01E21BF30BEC0FFD1FE485D9
:1015E0006E2B2F5F3F4FECCFFE01E20FF31FE5851F
:1015F000F7CF6FEF7FEFCB01DF91CF910895EF929F
:10160000FF921F93CF93DF93CDB7DEB765970FB6E9
:10161000F894DEBF0FBECDBF11E083EAE82EF12CB7
:1016200080915E0690915F061A8A1B8A1C8A1D8A29
:101630009A8389831C821B821C87FA86E9861D8611
:101640001B87CE0101960E94CE0A66FD07C061E0AD
:1016500070E080E090E00E940004E2CF65960FB653
:10166000F894DEBF0FBECDBFDF91CF911F91FF90E9
:10167000EF9008958F929F92AF92BF92CF92DF9298
:10168000EF92FF920F931F93CF93DF93EC014A01E8
:101690005B01888199810E94CE0A2A8101E010E0D5
:1016A00002C0000F111F2A95E2F701501109012E07
:1016B000000C220B330BAB81680179010A2E04C0A8
:1016C000CC0CDD1CEE1CFF1C0A94D2F7C094D09405
:1016D000E094F094C622D722E822F922E881F98129
:1016E000B901A801482159216A217B2104C0440F76
:1016F000551F661F771FAA95D2F74C295D296E29C1
:101700007F292285CF01DF91CF911F910F91FF900B
:10171000EF90DF90CF90BF90AF909F908F900C9400
:101720000207CF93DF93CDB7DEB769970FB6F89472
:10173000DEBF0FBECDBF20915E0630915F061A8AD4
:101740001B8A1C8A1D8A3A8329831C821B8291E092
:101750009C8720E830E03A8729871D869B879E0179
:101760002F5F3F4F3F8B2E8B988F998F482F50E0E4
:1017700070E060E0CE0146960E943A0B69960FB683
:10178000F894DEBF0FBECDBFDF91CF910895EF92E9
:10179000FF920F931F93CF93DF93CDB7DEB7699777
:1017A0000FB6F894DEBF0FBECDBFF82E80E00E94CA
:1017B000910B80915E0690915F061A8A1B8A1C8AA3
:1017C0001D8A9A8389831C821B8281E08C872FEA81
:1017D00030E03A8729871D868B878E010F5F1F4F68
:1017E0001F8B0E8B82E0888F83E0898F42E050E070
:1017F00060E070E0CE0146960E943A0BFF2009F4AB
:10180000A5C060E380E00E94DC0761E081E00E9407
:10181000DC0760E082E00E94DC0760E083E00E9479
:10182000DC0760E084E00E94DC0762E485E00E945F
:10183000DC0760E086E00E94DC0760E087E00E9451
:10184000DC0760E588E00E94DC0760E089E00E9438
:10185000DC0760E08AE00E94DC0760E08BE00E9429
:10186000DC0760E28CE00E94DC0764E08DE00E940F
:10187000DC0760E08EE00E94DC0760E38FE00E94FE
:10188000DC0761E080E10E94DC0760E581E10E9405
:10189000DC0760E082E10E94DC0766E083E10E94F1
:1018A000DC0780915E0690915F061A8A1B8A1C8A6B
:1018B0001D8A9A8389831C821B8281E08C8720E8A1
:1018C00030E03A8729871D868B871F8B0E8B888F88
:1018D00084E0898F41E050E060E070E0CE01469600
:1018E0000E943A0B09EE13E0EE24E394F12C8E896A
:1018F0009F890E94CE0AAB01BC01888D970102C06E
:10190000220F331F8A95E2F7C9010197092E000CB7
:10191000AA0BBB0B298D04C0769567955795479503
:101920002A95D2F784239523A623B723892B8A2BC4
:101930008B2B09F44DC00150110909F449C061E035
:1019400070E080E090E00E940004D1CF60E080E091
:101950000E94DC0760E081E00E94DC0760E082E03A
:101960000E94DC0760E483E00E94DC0762E084E020
:101970000E94DC0760E085E00E94DC0760E186E011
:101980000E94DC0763E087E00E94DC0760E588E0F6
:101990000E94DC0760E189E00E94DC0763E08AE0E6
:1019A0000E94DC0760E08BE00E94DC0760E08CE0D6
:1019B0000E94DC0760E08DE00E94DC0764E28EE0BC
:1019C0000E94DC0760E08FE00E94DC0760E05ACFF5
:1019D00069960FB6F894DEBF0FBECDBFDF91CF91F1
:1019E0001F910F91FF90EF900895CF93DF93CDB7A4
:1019F000DEB769970FB6F894DEBF0FBECDBF20915A
:101A00005E0630915F061A8A1B8A1C8A1D8A3A83F9
:101A100029831C821B8291E09C8729EA30E03A8767
:101A200029871D869B879E012F5F3F4F3F8B2E8B03
:101A3000988F94E0998F482F50E070E060E0CE01DD
:101A400046960E943A0B69960FB6F894DEBF0FBE19
:101A5000CDBFDF91CF910895CF92DF92EF92FF92A9
:101A60001F93CF93DF93CDB7DEB7E2970FB6F8940D
:101A7000DEBF0FBECDBFC82E20915E0630915F063F
:101A80001FA218A619A61AA63F8B2E8B198E188E88
:101A900081E089A340E750E05F8F4E8F1AA288A3B0
:101AA000AE014A5E5F4F58AB4FA789AB93E09AAB4C
:101AB0001A8A1B8A1C8A1D8A3A8329831C821B82EC
:101AC0008C8724E730E03A8729871D868B879E0123
:101AD0002F5F3F4F3CA72BA78DA787E08EA781E004
:101AE0000E94F50CD12CF12CE12CB701A601CE01FE
:101AF0008F960E943A0B182F882339F0B701A60160
:101B0000CE018B960E943A0B182F80E00E94F50CB4
:101B1000812FE2960FB6F894DEBF0FBECDBFDF91E6
:101B2000CF911F91FF90EF90DF90CF900895EF92AB
:101B3000FF921F93CF93DF93CDB7DEB7AE970FB66B
:101B4000F894DEBF0FBECDBF7C01FC018381948180
:101B50001FA218A619A61AA69F8B8E8B198E188EF7
:101B600011E019A382E990E09F8F8E8F1AA218A32B
:101B7000CE0146960E94CE0A6C7F77278827992748
:101B8000643271058105910561F5F70183819481C6
:101B90001A8A1B8A1C8A1D8A9A8389831C821B824B
:101BA0001C8780E890E09A8789871D861B87CE0175
:101BB00001969CA78BA71DA71EA641E050E060E000
:101BC00070E08A960E943A0B81E0AE960FB6F894C8
:101BD000DEBF0FBECDBFDF91CF911F91FF90EF9081
:101BE000089580E0F2CF85ED8093BC0080918A0556
:101BF00090918B05A0918C05B0918D050796A11D44
:101C0000B11D23E0B695A795979587952A95D1F7AD
:101C10002091BC0024FD03C01092880508954091D6
:101C20008A0550918B0560918C0570918D05452B2F
:101C3000462B472B69F30097A105B10541F02AE235
:101C40002A95F1F700C00197A109B109E1CF809170
:101C500089050C94D3051F920F920FB60F92112491
:101C60002F933F938F939F93AF93BF9380913405AE
:101C700090913505A0913605B09137053091330527
:101C800023E0230F2D3758F50196A11DB11D209398
:101C900033058093340590933505A0933605B093B2
:101CA00037058091380590913905A0913A05B0919A
:101CB0003B050196A11DB11D809338059093390510
:101CC000A0933A05B0933B05BF91AF919F918F913F
:101CD0003F912F910F900FBE0F901F90189526E8FF
:101CE000230F0296A11DB11DD2CF1F920F920FB6E6
:101CF0000F9211240BB60F922F933F934F935F9344
:101D00006F937F938F939F93AF93BF93EF93FF93C3
:101D1000E0910E02F0910F021995FF91EF91BF91A2
:101D2000AF919F918F917F916F915F914F913F9173
:101D30002F910F900BBE0F900FBE0F901F90189514
:101D40001F920F920FB60F9211240BB60F922F9382
:101D50003F934F935F936F937F938F939F93AF9333
:101D6000BF93EF93FF93E0910C02F0910D02199550
:101D7000FF91EF91BF91AF919F918F917F916F9163
:101D80005F914F913F912F910F900BBE0F900FBE1F
:101D90000F901F9018951F920F920FB60F9211245B
:101DA0000BB60F922F933F934F935F936F937F9355
:101DB0008F939F93AF93BF93EF93FF93E0910202B2
:101DC000F09103021995FF91EF91BF91AF919F910F
:101DD0008F917F916F915F914F913F912F910F90D4
:101DE0000BBE0F900FBE0F901F9018951F920F9271
:101DF0000FB60F9211240BB60F922F933F934F9370
:101E00005F936F937F938F939F93AF93BF93EF9362
:101E1000FF93E0910002F09101021995FF91EF917B
:101E2000BF91AF919F918F917F916F915F914F91F2
:101E30003F912F910F900BBE0F900FBE0F901F90F0
:101E400018951F920F920FB60F9211240BB60F9296
:101E50002F933F934F935F936F937F938F939F93B2
:101E6000AF93BF93EF93FF93E0910A02F0910B02BF
:101E70001995FF91EF91BF91AF919F918F917F91B4
:101E80006F915F914F913F912F910F900BBE0F90EB
:101E90000FBE0F901F9018951F920F920FB60F92C2
:101EA00011240BB60F922F933F934F935F936F9331
:101EB0007F938F939F93AF93BF93EF93FF93E091A3
:101EC0000802F09109021995FF91EF91BF91AF912E
:101ED0009F918F917F916F915F914F913F912F9142
:101EE0000F900BBE0F900FBE0F901F9018951F9272
:101EF0000F920FB60F9211240BB60F922F933F93B0
:101F00004F935F936F937F938F939F93AF93BF9301
:101F1000EF93FF93E0910602F09107021995FF916C
:101F2000EF91BF91AF919F918F917F916F915F9151
:101F30004F913F912F910F900BBE0F900FBE0F90BE
:101F40001F9018951F920F920FB60F9211240BB687
:101F50000F922F933F934F935F936F937F938F9342
:101F60009F93AF93BF93EF93FF93E0910402F0919F
:101F700005021995FF91EF91BF91AF919F918F91BC
:101F80007F916F915F914F913F912F910F900BBE79
:101F90000F900FBE0F901F9018951F920F920FB6C3
:101FA0000F9211240BB60F922F933F934F935F9391
:101FB0006F937F938F939F93AF93BF93EF93FF9311
:101FC00082EB95E00E94B704FF91EF91BF91AF9132
:101FD0009F918F917F916F915F914F913F912F9141
:101FE0000F900BBE0F900FBE0F901F9018951F9271
:101FF0000F920FB60F9211240BB60F922F938F935F
:102000009F93EF93FF93E091C205F091C305808108
:10201000E091C805F091C90582FD1DC090818091B5
:10202000CB058F5F8F732091CC05821741F0E09133
:10203000CB05F0E0EE54FA4F958F8093CB05FF91DE
:10204000EF919F918F912F910F900BBE0F900FBE2C
:102050000F901F9018958081F2CF1F920F920FB6AC
:102060000F9211240BB60F922F933F934F935F93D0
:102070006F937F938F939F93AF93BF93EF93FF9350
:102080008091B900887F803609F44DC008F040C0C7
:10209000883209F4A9C028F5803109F49DC0C8F43C
:1020A000882309F4FBC0883009F496C0FF91EF91B2
:1020B000BF91AF919F918F917F916F915F914F9160
:1020C0003F912F910F900BBE0F900FBE0F901F905E
:1020D0001895883109F488C0803241F780938605CD
:1020E00014C0803409F49DC040F48033B9F38833C0
:1020F000E9F68093860585ECB0C0803509F485C08B
:10210000883509F496C0883489F60E94F30DCECF45
:10211000883909F48CC038F5883729F050F48836AE
:1021200011F0803719F683E08093880510922D0511
:1021300057C0883809F47BC0803919F0803809F01D
:10214000B5CF80912D05803208F071C0E0912D054A
:1021500081E08E0F80932D058091BB00F0E0E35F5E
:10216000FA4F80833DC0803B39F0E0F4803A09F4B7
:1021700079C0883A09F09ACF84E08093880510925C
:102180000C0510920B05E0915E05F0915F05199525
:1021900080910B0581110FC081E080930B05109297
:1021A000EB0409C0803C09F4A6CF883C09F4A3CF16
:1021B000883B09F07BCFE0910C0581E08E0F809386
:1021C0000C05F0E0E551FB4F80818093BB009091BE
:1021D0000C0580910B0529C0809163058093BB009D
:1021E00085EC8093BC0062CF909185058091840539
:1021F000981758F5E091850581E08E0F809385054D
:10220000F0E0EC59FA4F8081E9CFE091850581E05B
:102210008E0F809385058091BB00F0E0EC59FA4F5A
:10222000808390918505809184059817C8F285E890
:10223000D8CFE091850581E08E0F80938505809150
:10224000BB00F0E0EC59FA4F808380918705811143
:102250005CCF81E08093620584EA8093BC00109299
:10226000880524CF85EC8093BC001092880580916E
:102270002D05803230F4E0912D05F0E0E35FFA4F58
:10228000108260912D0570E0E0915C05F0915D0594
:102290008DE095E0199510922D0508CF10928605D6
:1022A00034CFE2EBF5E01382128288EE93E0A0E0F7
:1022B000B0E084839583A683B7832EE132E0318337
:1022C000208325EC30E03587248724EC30E0378705
:1022D000268720EC30E0318B208B21EC30E0338BF3
:1022E000228B22EC30E0358B248B26EC30E0378BD0
:1022F000268B118E128E138E148EEFE4F6E013826D
:10230000128284839583A683B78380E392E09183CE
:102310008083EBE5F6E082E492E091838083128291
:10232000148213820895CF93DF93CDB7DEB7CD55D6
:10233000D1090FB6F894DEBF0FBECDBF789484B537
:10234000826084BD84B5816084BD85B5826085BDB1
:1023500085B5816085BD80916E00816080936E003F
:102360001092810080918100826080938100809131
:1023700081008160809381008091800081608093E2
:1023800080008091B10084608093B1008091B000A2
:1023900081608093B0008091910082608093910071
:1023A0008091910081608093910080919000816084
:1023B000809390008091A10082608093A100809121
:1023C000A10081608093A1008091A0008160809332
:1023D000A0008091210182608093210180912101E0
:1023E0008160809321018091200181608093200190
:1023F00080917A00846080937A0080917A00826074
:1024000080937A0080917A00816080937A00809135
:102410007A00806880937A001092C100E091C20532
:10242000F091C30582E08083E091BE05F091BF0585
:102430001082E091C005F091C10580E18083109287
:10244000CA05E091C605F091C70586E08083E0915A
:10245000C405F091C505808180618083E091C40549
:10246000F091C505808188608083E091C405F0917A
:10247000C505808180688083E091C405F091C50521
:1024800080818F7D80830E94320487E492E00E94E5
:102490000A0988E692E00E940A090E94BC05809120
:1024A0005E0690915F06009711F00E94191A86E06F
:1024B00090E00E947D198C0189E3D8018C938FE410
:1024C00096E012969C938E93119713961C921397F5
:1024D00080E290E015969C938E93149710935F067C
:1024E00000935E060E94BC0581E0F8018383C80169
:1024F0000E940B0881110FC08CE892E00E940A092B
:1025000081EB92E00E940A0964E670E080E090E0CE
:102510000E940004F9CF40E050E0BA018BE596E05C
:102520000E94970D882341F382EF92E00E940A09EE
:1025300082E00E949E018EE394E0909301028093DA
:10254000000280916A008C7F826080936A00EC9A1E
:1025500083E00E949E018AE193E00E940A0981E3E0
:1025600093E00E940A0980E493E00E940A098DE446
:1025700093E00E940A0987E693E00E940A0982EB31
:1025800095E00E94260568EE73E080E090E00E94EE
:102590000004CE0101967C0182EB95E00E94A1042B
:1025A000181619060CF04DC0670110E000E00E94FB
:1025B00032046093BA057093BB058093BC05909379
:1025C000BD0582EB95E00E947F0497FFF4C20E9454
:1025D00032048090BA059090BB05A090BC05B090E5
:1025E000BD05681979098A099B098090B605909004
:1025F000B705A090B805B090B905681579058A05AA
:102600009B05F8F2F701E00FF11F1082EE16FF06AE
:1026100029F082918032C9F38D30B9F362E873E01A
:10262000C7010E94A21A892B09F08DC181E00E9486
:102630002C0D84E893E00E940A0982EB95E00E9449
:1026400026050E94320400912F051091300520913B
:10265000310530913205601771078207930740F406
:1026600060932F0570933005809331059093320568
:1026700000912F05109130052091310530913205E0
:102680004B015C01801A910AA20AB30A0091100260
:1026900010911102209112023091130280169106BE
:1026A000A206B30608F44CC160932F057093300561
:1026B0008093310590933205EFECF1E08491EFE8DF
:1026C000F2E00491E9E4F2E0149111115FC281E0BB
:1026D00080932E0580912E0510922E0580E3D70160
:1026E0001D928A95E9F710E000E0B12CA12C85E954
:1026F000882E912C92E0792E6E01B1E3CB0ED11C85
:1027000081E00E94C70B81E00E94910B0E94FF0AAA
:1027100080915E0690915F066E961CAE1DAE1EAE59
:102720001FAE6E972B969FAF8EAF2B972D961FAE39
:102730001EAE2D9781E065968FAF659763969FAE2D
:102740008EAE639766961FAE669764967FAE64976B
:102750004CE0B601CE01875B9F4F0E942009682E96
:1027600080E00E94C70B81E00E94910B0E94FF0A4B
:10277000662031F14CE0BE01635C7F4FCE01875B88
:102780009F4F0E9420098823D9F0F701260141912B
:10279000519161917191D2012D913D912D01CF0106
:1027A0000497420F531F611D711DDC014D935D9312
:1027B0006D937C931397CE16DF0649F70F5F1F4F7B
:1027C000B4E0AB16B104E1F080912E058111EEC1A9
:1027D0006091100270911102809112029091130287
:1027E000683771058105910508F4E0C126E030E005
:1027F00040E050E00E94AD18CA01B9010E940004F7
:10280000EFEFAE1ABE0AF5E0AF16B10409F078CFCB
:1028100088EC94E00115110509F48CC057012601DC
:102820003801110F88089908D5016D917D918D911E
:102830009D915D01A40193010E94AD18F2012193C5
:1028400031932F01AC14BD0479F783E394E00E9427
:1028500018090E9432044AE00E94C60881E494E00C
:102860000E94180989A99AA90E941A0987E594E08B
:102870000E9418098BA99CA90E941A0981E694E07C
:102880000E9418098DA99EA90E941A098BE694E05E
:102890000E9418098FA998AD0E941A0985E794E053
:1028A0000E94180989AD9AAD0E941A098FE794E039
:1028B0000E9418098BAD9CAD0E941A0989E894E02A
:1028C0000E9418098DAD9EAD0E941A0983E994E01B
:1028D0000E94180921968EAD9FAD21970E941A097A
:1028E0008DE994E00E94180923968EAD9FAD239741
:1028F0000E941A0987EA94E00E94180925968EAD75
:102900009FAD25970E941A0981EB94E00E94180957
:1029100027968EAD9FAD27970E941A098BEB94E006
:102920000E94180929968EAD9FAD29970E941A0919
:1029300085EC94E00E940A0982EB95E00E9426054E
:102940000E94460529CE68E973E0C7010E94A21AD9
:10295000892B31F480E00E942C0D8AE993E06BCE44
:1029600045E050E06FEA73E0C7010E94AB1A892B83
:1029700009F009C1CE0106960E94E9154B015C01E0
:1029800020E030E040E85EE30E946C17811120C037
:1029900080EA9FE0A0E0B0E08093100290931102E3
:1029A000A0931202B093130283EF93E00E941809E0
:1029B000A5019401C501B4010E947819882309F486
:1029C00055C08BE094E00E94B9088DEE93E033CEC1
:1029D00020E030E040E05FE3C501B4010E946C17E5
:1029E000811105C080ED97E0A0E0B0E0D5CF20E0F8
:1029F00030E040E85FE3C501B4010E946C1781112B
:102A000005C088EE93E0A0E0B0E0C6CF20E030E063
:102A100040E050E4C501B4010E946C17811105C06B
:102A200084EF91E0A0E0B0E0B7CF20E030E040E8F4
:102A300050E4C501B4010E946C17811105C08AEFF2
:102A400090E0A0E0B0E0A8CF20E030E040E051E42A
:102A5000C501B4010E946C17811105C08DE790E09B
:102A6000A0E0B0E099CF85EB93E0E5CD24013501FE
:102A7000E89477F82FEF3FEF4FE75FE7C301B2012C
:102A80000E94781981110DC02FEF3FEF4FE75FE7EC
:102A9000C301B2010E946C1718161CF48FE094E079
:102AA00092CF2FEF3FEF4FE75FE4C501B4010E94E3
:102AB000731918161CF483E194E085CF2FEF3FEFD4
:102AC0004FE75FECC501B4010E946C1787FDF3CF9F
:102AD00020E030E0A901C501B4010E946C1787FF16
:102AE00009C06DE282EB95E00E94D904B7FAB09478
:102AF000B7F8B0942AE037ED43EA5BE3C501B401CF
:102B00000E94D8182B013C010E9444194B015C0122
:102B10000E9471179B01AC01C301B2010E94D7183A
:102B20002B013C014AE0C501B4010E94C6086EE2D7
:102B300082EB95E00E94D90420E030E040E251E4CD
:102B4000C301B2010E94D2172B013C010E9444191B
:102B50004B01CB010E941A09B40190E080E00E9471
:102B600071179B01AC01C301B2010E94D71820E08C
:102B700030E040E251E40E94D2170E944419CB0198
:102B80000E941A0922CF87E194E055CD81110E945D
:102B9000C801E12FF0E0EE0FFF1FED54FE4FA591AD
:102BA000B491EC910E2309F492CD94CD24E130E060
:102BB00040E050E021CE8A30910509F423CDD601C2
:102BC0008D936D010F5F1F4F0F31110509F0EFCC91
:102BD00019CD662777270C94ED158F929F92AF92AF
:102BE000BF92CF92DF92EF92FF920F931F93CF93FA
:102BF000DF935C017B016115710519F0DB018D9399
:102C00009C9385010F5F1F4FF501D0818D2F90E0C0
:102C10000E944B176C01892BB9F5DD32B9F50F5FB6
:102C20001F4FD5011196DC91C1E05801F1E0AF1AB8
:102C3000B10843E050E060E871E0C5010E9454171C
:102C4000892B69F5680182E0C80ED11C45E050E08F
:102C50006BE771E0C6010E945417892B21F46801CB
:102C600097E0C90ED11CE114F10419F0D701CD92FF
:102C7000DC9260E070E080E89FEFC111FFC060E08F
:102C800070E080E89FE7FAC05801BBCFDB3229F43F
:102C900085010E5F1F4FF501D181C0E0C6CF43E033
:102CA00050E068E771E0C5010E945417892BE9F0F4
:102CB000F80110E000E020E030E0A9015F01B0ED94
:102CC0008B2E8D0E89E08815C8F19C2E689491F8A2
:102CD0008C2F8870C2FF16C0811102C00F5F1F4F7A
:102CE0003196D501DC91C92DE9CFE114F10429F029
:102CF0000E5F1F4FF7011183008360E070E080ECEE
:102D00009FE7BCC0882311F001501109A5E0B0E095
:102D10000E9493189B01AC01220F331F441F551FC3
:102D2000280D311D411D511D283999E939074907E1
:102D300099E15907A8F2C6609C2ED2CFAEEF8A1255
:102D400006C0C3FD3CC09C2E689493F8C9CFDF7DBC
:102D5000D534A9F580818D3239F4C061DF01129636
:102D6000818162E070E006C0DF018B32C1F3119611
:102D700061E070E080535D01A61AB70A8A30F8F46A
:102D8000E0E8CE16ECE0DE065CF4B601660F771FD5
:102D9000660F771FC60ED71ECC0CDD1CC80ED11CCB
:102DA0005D01FFEFAF1ABF0A8C9180538A30A8F102
:102DB000C4FF03C0D194C194D1080C0D1D1DC1FFE7
:102DC00009C0E114F10431F081E0A81AB108D7017B
:102DD000AD92BC92CA01B9010E947117C370C33091
:102DE00009F490584B015C0120E030E0A9010E94F9
:102DF0006C17882309F440C0CFEAD1E017FF05C063
:102E0000119501951109C7E9D1E06E01B8E1CB1A1E
:102E1000D10880E2E82EF12C0FC0D501B1CFFE0120
:102E200025913591459154910E191F09C501B401A1
:102E30000E94D2174B015C01D501C4010E151F057C
:102E400074F72497F594E794CC16DD06A9F78A2F3A
:102E5000880F8B2F881F8F3F49F020E030E0A901B9
:102E6000C501B4010E946C17811106C082E290E096
:102E700090937B0680937A06C501B401DF91CF91D0
:102E80001F910F91FF90EF90DF90CF90BF90AF9088
:102E90009F908F90089591110C943F18803219F0F3
:102EA00089508550C8F70895FB01DC01415050401E
:102EB00088F08D9181341CF08B350CF4805E659127
:102EC00061341CF06B350CF4605E861B611171F38C
:102ED000990B0895881BFCCF0E94AE1708F481E07F
:102EE0000895E89409C097FB3EF4909580957095FD
:102EF00061957F4F8F4F9F4F9923A9F0F92F96E946
:102F0000BB279395F695879577956795B795F111BA
:102F1000F8CFFAF4BB0F11F460FF1BC06F5F7F4F57
:102F20008F4F9F4F16C0882311F096E911C0772369
:102F300021F09EE8872F762F05C0662371F096E872
:102F4000862F70E060E02AF09A95660F771F881F41
:102F5000DAF7880F9695879597F90895990F0008E5
:102F6000550FAA0BE0E8FEEF16161706E807F9075B
:102F7000C0F012161306E407F50798F0621B730BF6
:102F8000840B950B39F40A2661F0232B242B252B77
:102F900021F408950A2609F4A140A6958FEF811D1A
:102FA000811D08950E94E5170C9459180E944B1832
:102FB00038F00E94521820F0952311F00C9442181A
:102FC0000C94481811240C948D180E946A1870F300
:102FD000959FC1F3950F50E0551F629FF001729FBE
:102FE000BB27F00DB11D639FAA27F00DB11DAA1FCD
:102FF000649F6627B00DA11D661F829F2227B00D1A
:10300000A11D621F739FB00DA11D621F839FA00DA4
:10301000611D221F749F3327A00D611D231F849FF4
:10302000600D211D822F762F6A2F11249F5750404B
:103030009AF0F1F088234AF0EE0FFF1FBB1F661FC6
:10304000771F881F91505040A9F79E3F510580F08F
:103050000C9442180C948D185F3FE4F3983ED4F31F
:10306000869577956795B795F795E7959F5FC1F733
:10307000FE2B880F911D9695879597F908959927AE
:103080008827089597F99F6780E870E060E00895C9
:103090009FEF80EC089500240A9416161706180670
:1030A0000906089500240A9412161306140605064C
:1030B0000895092E0394000C11F4882352F0BB0FDD
:1030C00040F4BF2B11F460FF04C06F5F7F4F8F4F40
:1030D0009F4F089557FD9058440F551F59F05F3F7B
:1030E00071F04795880F97FB991F61F09F3F79F02A
:1030F00087950895121613061406551FF2CF4695AC
:10310000F1DF08C0161617061806991FF1CF86952D
:103110007105610508940895E894BB276627772711
:10312000CB0197F908950E949E18A59F900DB49F1A
:10313000900DA49F800D911D11240895A29FB001B0
:10314000B39FC001A39F700D811D1124911DB29FDB
:10315000700D811D1124911D0895A1E21A2EAA1B44
:10316000BB1BFD010DC0AA1FBB1FEE1FFF1FA21737
:10317000B307E407F50720F0A21BB30BE40BF50B34
:10318000661F771F881F991F1A9469F760957095BD
:10319000809590959B01AC01BD01CF010895EE0F84
:1031A000FF1F881F8BBF0790F691E02D1994505890
:1031B000BB27AA270E94EF180C9459180E944B189D
:1031C00038F00E94521820F039F49F3F19F426F489
:1031D0000C9448180EF4E095E7FB0C944218E92F84
:1031E0000E946A1858F3BA17620773078407950795
:1031F00020F079F4A6F50C948C180EF4E0950B2EC3
:10320000BA2FA02D0B01B90190010C01CA01A00138
:103210001124FF27591B99F0593F50F4503E68F193
:103220001A16F040A22F232F342F4427585FF3CFD4
:10323000469537952795A795F0405395C9F77EF4A5
:103240001F16BA0B620B730B840BBAF09150A1F0EE
:10325000FF0FBB1F661F771F881FC2F70EC0BA0F74
:10326000621F731F841F48F4879577956795B795FC
:10327000F7959E3F08F0B0CF9395880F08F09927F7
:10328000EE0F9795879508950E94721888F09F57C2
:1032900098F0B92F9927B751B0F0E1F0660F771F7A
:1032A000881F991F1AF0BA95C9F714C0B13091F070
:1032B0000E948C18B1E008950C948C18672F782F19
:1032C0008827B85F39F0B93FCCF386957795679535
:1032D000B395D9F73EF490958095709561957F4FA1
:1032E0008F4F9F4F08950E94AE1708F48FEF0895F7
:1032F0000E94AE17880B990B08950F931F93CF93DD
:10330000DF938230910510F482E090E0E0917E0638
:10331000F0917F0630E020E0B0E0A0E0309799F433
:103320002115310509F44AC0281B390B2430310519
:10333000D8F58A819B816115710589F1FB01938321
:103340008283FE0111C0408151810281138148179F
:103350005907E0F04817590799F4109761F0129651
:103360000C93129713961C933296CF01DF91CF9155
:103370001F910F91089500937E0610937F06F4CF5E
:103380002115310551F04217530738F0A901DB012F
:103390009A01BD01DF01F801C1CFEF01F9CF909390
:1033A0007F0680937E06CDCFFE01E20FF31F81934F
:1033B00091932250310939832883D7CF20917C06FD
:1033C00030917D06232B41F4209116023091170293
:1033D00030937D0620937C062091140230911502D3
:1033E0002115310541F42DB73EB740911802509197
:1033F0001902241B350BE0917C06F0917D06E21743
:10340000F307A0F42E1B3F0B2817390778F0AC0107
:103410004E5F5F4F2417350748F04E0F5F1F5093E4
:103420007D0640937C06819391939FCFF0E0E0E08E
:103430009CCFCF93DF930097E9F0FC013297138282
:103440001282A0917E06B0917F06ED0130E020E06F
:103450001097A1F420813181820F931F20917C0667
:1034600030917D062817390709F061C0F0937D0679
:10347000E0937C06DF91CF910895EA01CE17DF0734
:10348000E8F54A815B819E0141155105B1F7E901DB
:10349000FB83EA8349915991C40FD51FEC17FD07AF
:1034A00061F4808191810296840F951FE9019983CF
:1034B0008883828193819B838A83F0E0E0E0129687
:1034C0008D919C9113970097B9F52D913C9111978F
:1034D000CD010296820F931F20917C0630917D06CC
:1034E0002817390739F6309751F510927F06109258
:1034F0007E06B0937D06A0937C06BCCFD383C283A7
:1035000040815181840F951FC817D90761F44E5F20
:103510005F4F88819981480F591F518340838A8169
:103520009B81938382832115310509F0B0CFF093FD
:103530007F06E0937E069ECFFD01DC01C0CF1382A3
:103540001282D7CFFB01DC018D910190801901100F
:10355000D9F3990B0895FB01DC014150504030F044
:103560008D910190801919F40020B9F7881B990BEF
:063570000895F894FFCF5E
:103576004204420442044204420442044204420415
:10358600E803000000008006800000000000D90467
:10359600430470042605A1047F0493040000000080
:1035A60087085A08B6083008530840083108000052
:1035B6000000970D0D0A00415337333431204D7505
:1035C6006C7469737065637472616C2053656E7395
:1035D6006F722054657374003D3D3D3D3D3D3D3D5C
:1035E6003D3D3D3D3D3D3D3D3D3D3D3D3D3D3D3D05
:1035F6003D3D3D3D3D3D3D3D3D3D0A004552524F21
:10360600523A20436F756C64206E6F742066696E43
:1036160064204153373334312073656E736F7221E2
:1036260000436865636B2049324320636F6E6E65A5
:103636006374696F6E7320285344413D32302C20E9
:1036460053434C3D32312920616E642073656E739D
:103656006F7220737570706C7920766F6C74616709
:1036660065004153373334312073656E736F7220B2
:10367600696E697469616C697A65642073756363E0
:1036860065737366756C6C7921000A53656E736F8A
:103696007220436F6E66696775726174696F6E3A00
:1036A600002D204C45443A20456E61626C656400ED
:1036B6002D204761696E3A2032353678002D204933
:1036C6006E746567726174696F6E2054696D653AD0
:1036D600203239206D73000A5374617274696E6703
:1036E600206D6561737572656D656E74732E2E2E11
:1036F6000A0031007B22737461747573223A224C7E
:103706004544204F4E227D0030007B227374617445
:103716007573223A224C4544204F4646227D00527C
:103726004154453A007B226572726F72223A2249F1
:103736006E76616C696420726174652E20537570B3
:10374600706F727465643A20302E32352C20302E1C
:10375600352C20312C20322C20342C203820487A4D
:10376600227D007B22737461747573223A22526142
:1037760074652073657420746F20006E616E006935
:103786006E66006F7666007B226572726F72223AF1
:1037960022556E6B6E6F776E20636F6D6D616E6412
:1037A600227D007B2274696D657374616D70223AA7
:1037B600002C226368616E6E656C73223A7B22343C
:1037C60031306E6D223A002C223434306E6D223A3E
:1037D600002C223437306E6D223A002C22353130DF
:1037E6006E6D223A002C223535306E6D223A002C51
:1037F600223538306E6D223A002C223631306E6D0D
:10380600223A002C223638306E6D223A002C2237AE
:1038160033306E6D223A002C223831306E6D223AEA
:10382600002C223836306E6D223A002C22636C65ED
:103836006172223A007D7D007B226572726F722270
:103846003A224661696C656420746F207265616412
:0A3856002073656E736F72227D000F
:00000001FF
